:400000000020002011000000010800000108000008B501F085FA00F00FFCC04610B512221C4B1A60302001F0F3F9BC2292011A4B1A601A4B1A4A1A60A021C900194A116037
:40004000194A1A6088218901184A1160184A1A600024184B1C604223174A1360174A1360174A1360174A1360174A13604022174B1A600132164B1A600B20164901F012F963
:400080000B2001F0E9F8144B1C60002001F050FA10BDC04630001040080301400000014042FF00800003014040FF00800403014041FF008028000340200101401C01014036
:4000C0001801014014010140100101400801014004010140C91500000C02074008B572B6164A174B1A60174A174B1A60174A184B1A60184A184B1A602322184B1A60184ADC
:40010000184B1A602022184B1A601B3A174B1A608232FF32164B1A60463AFF3A154B1A60154A164B1A600122154B1A60154A164B1A60FFF773FF00F0C7FB08BDEE00990068
:40014000000002400808000000010240080000080002024008EE000000030240000004402410030008000440180004400001044008010440000204408601D80008020440B3
:4001800000030440860D00000803044010B5064C2378002B07D1054B002B02D0044800E000BF0123237010BD3001002000000000AC18000008B5084B002B03D007480849E2
:4001C00000E000BF07480368002B00D108BD064B002BFBD09847F9E700000000AC180000340100209800002000000000024A1368013313607047C0464C010020F8B562B6B1
:4002000000F0D2FB00F0A8FE00F01AFF00F08CFF00F0FEFF514C201C0021802201F0D4FA4F4B1C600025C823E5540133E5540133E55402223533E25400F0DCFB80214900F3
:40024000081C221C00F056FC00F088FD454800F013FE0F20444901F015F8444A444B536044490B6A1B021B0AC020000603430B62956007231360C820C00001F09BFA3E4B27
:400280001860012001F0F2F9002700263B4B1B680A3BB3424EDD394B1E6800F0D7FD722802D1374800F0E8FD2D4B1A68C823D35C012B01D100F04EFA294B1B68FD229A5C29
:4002C000012A0CD1FD32985CC0B200F007FC244B1A680021FD23D154012001F0DBF9002524E0AC006419A0002418234B186800190379002B01D100F045F81F4B1868001953
:400300000379012B01D100F0A3F81B4B186800190379022B01D100F035F9174B186800190379032B01D100F0CBF90135134B5B689D42D6DB114B1B68F53BFF3BBB42A5DD46
:400340000E4B1F6801F09EF9002803D0002001F08DF99BE7012001F089F997E78801002088020020B0180000ED01000010E000E07FBB000000ED00E08C0200204C010020F4
:40038000C018000038B5437C012B42D1447D827D12022243111CC57D2D042A1C0A43037E1B0613431D1C447A827A12022243C37A1B0413431A1C037B1B061343EB18214A5F
:4003C000126893423DDC457B817B09022943C27B12040A43111C027C12060A439B18194A126893420BDA00234374C3789B00164A9A584379807900021843904721E0C37841
:400400009B00114A9A58C379007A00021843904717E0427883781B021343027852001BB20A498A5E93420CDA0123437400238374044B1B684375190A8175190CC1751B0E20
:40044000037638BD4C0100209C0000208801002070B5041C437C012B5DD1C27C037D1B021343427980790002104383422BD1607DA27D12020243111CE57D2D042A1C0A433B
:40048000237E1B0613431D1C607AA27A12020243E37A1B0413431A1C237B1B061343EB18354A1268934266DCE379207A00021843E374030A2375E3789B00304A9B589847DB
:4004C0000023637457E0657DA27D12022A43111CE67D3604321C0A43237E1B0613431E1C657BA27B12022A43E37B1B0413431A1C237C1B061343F3181F4A126893423ADC1C
:40050000E074030A2375E3789B001C4A9B589847002363742FE0427883781B021343027852001BB216498A5E934224DA0123437400238374104B1B684375190A8175190CE7
:40054000C1751B0E0376C37C027D12021A43437980790002184382420DD0E179237A1B020B439A4207D0E074030A2375E3789B00024A9B58984770BD4C0100209C00002049
:400580008801002070B5837C012B7AD101784900427883781B021343464A525E1BB29A4202DA0023837484E0031CC17C027D12020A434179807900020843824232D15C7DEE
:4005C000997D09022143081CDD7D2D04291C01431A7E12060A43151C5C7A997A09022143DA7A12040A43111C1A7B12060A43AA18314909688A425CDC2F4A12685A75100A4D
:400600009875100CD875120E1A76DA79187A00021043DA74020A1A75DB789B00274A9B58984746E05D7D997D090229430C1CDE7D3604311C21431A7E12060A43161C5D7B3E
:40064000997B09022943DA7B12040A43111C1A7C12060A43B218184909688A4229DC164A12685A75140A9C75140CDC75120E1A76D874020A1A75DB789B00104A9B589847A8
:4006800017E0002B15D101784900427883781B021343084A525E1BB29A420ADD064B1B684375190A8175190CC1751B0E03760123837470BD880100204C0100209C000020FA
:4006C00038B5437C012B28D1447D827D12022243111CC57D2D042A1C0A43037E1B0613431D1C447A827A12022243C37A1B0413431A1C037B1B061343EB18134A12689342CD
:4007000021DC00234374C3789B00104A9A584379807900021843904715E001784900427883781B0213430A4A525E1BB29A420ADD054B1B684375190A8175190CC1751B0E3C
:4007400003760123437438BD4C0100209C0000208801002010B50022264B1A60264B1B68CA215A54C939C93299543CE0C8229A5C002A03D10021C93299543AE0CA229A5C16
:40078000002AF3D0002311E01C4A1068194A126891008A1891005218D218191C8031164C24686118097881540133DBB2102BEBD911210DE0114B18680E4B1A6893009B18E6
:4007C0009A009B185B18C31800221A700131C9B21829EFD9074A136801331360064B1A680021CA23D154044B1B68C8229A5C012AC4D010BD50010020880200208C0200207C
:40080000FEE7C04608B5031C094A1068C318094A9A1AA02109018A4202DC054A136005E000F09CFF0C2303600120404208BDC046B0000020A802002070B50F4E0F4D13E032
:4008400029686B68AC68002202E001C901C30432A242FAD1E868002202E0002102C304328242FAD11035013E002EE9D100F07CFFFFF7C4FCFEE7C046010000000C190000EC
:4008800008B500230AE0032B03D89A000949505800E009489900094A88500133232BF2D9FFF71CFC0022064B1A6080229205054B1A6008BD000000000108000000000020A3
:4008C0009000002008ED00E00322034B1A600022024B1A607047C04630003040000E3F400004000C014B18607047C046080106400004000C014B18607047C04614010640E7
:400900000004000C014B18607047C0460C01064038B5041C0D1C00F0D4FEAC40024B1C6000F0D3FE38BDC0460800064008B500F0C8FE064A116801230B43136000F0C5FE48
:4009400001201821FFF7E4FF08BDC04600000640014B18607047C0463801064010B50D4C8023DB042360236823600020FFF7B8FF236823600C22084B1A600120FFF7E8FF2E
:400980003122064B1A600648FFF7B2FF0548FFF7B7FF10BD000106402401064028010640204E0000DC05000008B5064B1B78002B04D1FFF7D3FF0122024B1A70FFF7B6FFE0
:4009C00008BDC0465401002008B5092000F044FC08BDC04608B500F01DF808BD08B5044A1368802109060B431360FFF7EDFF08BD00000A4008B5064B1B78002B04D1FFF7D0
:400A0000E9FF0122024B1A70FFF7E8FF08BDC0465801002010B500241B4B1C601B4A1C4B1A601C4B1C4A13601C4A14601C491D4A11601D4A136002221C4B1A60092000F053
:400A400015FC0920032100F03FFC0920184900F029FC184B1C60184B1C603222FF32174B1A60174B1C602E3AFF3A164B1A60164B1C60164B1C70164B1C70164B1C80164BC0
:400A800000221A7010BDC04600000A4000F8004060000A400701008000030A4004030A401000FE0010030A4000020A4004020A40250B0000C80E0A40880E0A40480F0A408D
:400AC000080F0A40C80F0A40880F0A4094020020980200209202002090020020044A1368FF218B4340000840184310607047C04610030A4070B5061C0D1C141E0BD00920F3
:400B000000F0B4FB044B1C60044B1E80044B1D80092000F0A1FB70BD9C020020A002002096020020F8B56E4B1B68002B00D098476C4B1C686C4B1E680223FF331C422AD06E
:400B40006A4A13685B005B081360694A117810230B431370674B1B78DB070BD5664B1A78664B1B889A420AD0614A117808230B43137004E05E4A117802230B431370002323
:400B80005F4A13605B4A1370584A1368802109060B431360A3E0330744D55A4B1D68554B1B78012B04D0002B16D0032B28D032E0524B1B88544A1288934209D2534A1268A8
:400BC000D318EAB21A704D4A13880133138025E00322484B1A7021E04D4B1B88AB4207D9454B1D70454B1D800122424B1A7015E0414B1A78414B1A8003223E4B1A700DE0B9
:400C0000444B1A68802149020A431A601968424A0A401A6002E0002000F032FB04223F4B1A6000E00025202121401BD02D4A402313603B4B3B481860022018602E4F3B78AC
:400C400032480068C3181B78DBB2374803602B4805883B78013303800120294B1860146004231E4373071DD5244B1B88284A128893420BD2254A1268D3181B78DBB22A4A9E
:400C800013601E4A13880133138002E0FF22264B1A60264B1B681F221340022BE4D11E3A234B1A60E3061AD5002903D10D4B1C60124B1D88104B1B78AB4205D00D4B1B7819
:400CC000DB0703D4022302E0022300E00A231C40074B1A7814431C700022064B1A70F8BD5C010020400F0A40000E0A4000000A40980200209402002090020020920200209F
:400D0000880F0A4040030A40960200209C020020A002002004030A40FFFFFEFFC00F0A4004020A400200010040020A4008020A40800F0A4008B500F073F808BD08B500F012
:400D40001DF808BD08B5044A1368802109060B431360FFF7EFFF08BD0000094008B5064B1B78002B04D1FFF7E9FF0122024B1A70FFF7E8FF08BDC0466001002010B5154AEA
:400D8000154B1A600023154A13600121144A1160144A15480260072414480460144803601448016014490A60144A13600421144A1160144A1360144A1360144A1360144A92
:400DC0001360144A1360144A13601268134B1A8010BDC0460B0000020000094040000940480009400700008000030940040309401003094044000940000209400402094083
:400E000050000940880E0940C80E0940480F0940080F0940C80F0940880F094062010020064A1168064B0B40902109040B431360044B1A88044B1A607047C04600000240FB
:400E4000FFFF0FFF62010020880F094008B500F045FC002802D000F03BFC00E00020054B1A68D8239B001A4203D01A1C014B1A60002008BDC00F094038B5051C002402E050
:400E800000F034FC0134285D0028F9D138BDC0460004000C014B18607047C046480106400004000C014B18607047C046540106400004000C014B18607047C0464C010640FB
:400EC00038B5041C0D1C00F0FCFBAC40024B1C6000F0FBFB38BDC0460800064008B500F0F0FB064A116802230B43136000F0EDFB02201821FFF7E4FF08BDC046000006408D
:400F0000014B18607047C0467801064010B50D4C8023DB042360236823600020FFF7B8FF236823600C22084B1A600120FFF7E8FF3122064B1A600648FFF7B2FF0548FFF716
:400F4000B7FF10BD400106406401064068010640204E0000DC05000008B5064B1B78002B04D1FFF7D3FF0122024B1A70FFF7B6FF08BDC046640100200004000C014B18608C
:400F80007047C046880106400004000C014B18607047C046940106400004000C014B18607047C0468C01064038B5041C0D1C00F088FBAC40024B1C6000F087FB38BDC0460A
:400FC0000800064008B500F07CFB064A116804230B43136000F079FB04201821FFF7E4FF08BDC04600000640014B18607047C046B801064010B50D4C8023DB0423602368F5
:4010000023600020FFF7B8FF236823600C22084B1A600120FFF7E8FF3122064B1A600648FFF7B2FF0548FFF7B7FF10BD80010640A4010640A8010640204E0000DC05000090
:4010400008B5064B1B78002B04D1FFF7D3FF0122024B1A70FFF7B6FF08BDC046650100200004000C014B18607047C046C80106400004000C014B18607047C046D4010640C5
:401080000004000C014B18607047C046CC01064038B5041C0D1C00F014FBAC40024B1C6000F013FB38BDC0460800064008B500F008FB064A116808230B43136000F005FB06
:4010C00008201821FFF7E4FF08BDC04600000640014B18607047C046F801064010B50D4C8023DB042360236823600020FFF7B8FF236823600C22084B1A600120FFF7E8FFE0
:401100003122064B1A600648FFF7B2FF0548FFF7B7FF10BDC0010640E4010640E8010640204E0000DC05000008B5064B1B78002B04D1FFF7D3FF0122024B1A70FFF7B6FF18
:4011400008BDC046660100200004000C014B18607047C046080206400004000C014B18607047C046140206400004000C014B18607047C0460C02064038B5041C0D1C00F044
:40118000A0FAAC40024B1C6000F09FFA38BDC0460800064008B500F094FA064A116810230B43136000F091FA10201821FFF7E4FF08BDC04600000640014B18607047C046C7
:4011C0003802064010B50D4C8023DB042360236823600020FFF7B8FF236823600C22084B1A600120FFF7E8FF3122064B1A600648FFF7B2FF0548FFF7B7FF10BD0002064049
:401200002402064028020640204E0000DC05000008B5064B1B78002B04D1FFF7D3FF0122024B1A70FFF7B6FF08BDC04667010020024A1168024B0B40136070470000074054
:40124000FFFFFFBF034B18688023DB05184000D001207047000007401F2318401E3B8340181C014B1860704700E100E01F2318401E3B8340181C014B1860704780E100E04E
:4012800001BE704738B5041C0D1C0F2802D90020FFF7F6FFA40080239B059C4664442068256038BD38B5041C0D1C132802D90020FFF7E6FFA400034B9C4664442068256022
:4012C00038BDC0464000002070B5041C0E1E032E02D90020FFF7D4FF132C02D90020FFF7CFFF03252540ED00063500F0EAF9A408A400074B9C46644423680322AA4093430B
:40130000AE40351C1D43256000F0DFF970BDC04600E400E010B5041C06E0084B186800F0C7F9074B9C46644480231B029C42F4D8024B5868604300F0BBF910BDB400002041
:401340000080FFFF30B583B000F0E0F8002848D000F0B7F9041C244B1B6807221A409200131C1833214A12681207920FD3401A1C1F4B19681F4B19401F4B53438020C00197
:4013800084466344DB0B013B5B055B0D0B43A02149031943192A02D8184A13430BE0184BD31818781A3A174B9B5CC318FF2B00D9FF239B050B430E4A1360134D2B68019390
:4013C000302000F0A1F9114A13688021C9050B4313601420FFF79EFF019B2B60201C00F074F903B030BDC046080F0340280003400800074000F800C040420F000000D43F70
:40140000CDF1FF0FCC1800003000104000000740F0B583B0041E182C0BD01C2809D0202807D0242805D0282803D02C2801D0302849D100F046F90190FFF704FF002803D051
:40144000FFF7F6FE012600E00026214A136807218B4313601F4BE3181B78DBB21E4A13601E4A13688B4313601D4803687F229343191C1C4BE3181B7813400B4303603220BB
:4014800000F016F9182C16D9114F3B680725AB431A1C231C1C3B9B082B4013433B60322000F006F93A68AA43231C183B9B082C1C1C4014433C60012E01D1FFF743FF0198A4
:4014C00000F003F902E00020FFF7DAFE03B0F0BD080F0340CDF1FF0F0C0F0340100F0340180F0340B4F1FF0F08B5034B1B7A584300F0DEF808BDC046B4000020024B186860
:40150000800F80077047C0460C020740034B1B68002B01DA012000E00020704700000740014A024B1A6070476588EDAC3800034010B5041CFFF7E2FFA0421AD0144A136862
:4015400003218B431360134B1B689B0F01D17C2001E086204000FFF7C7FF00F0B2F80D4A13689B009B08A40FA4071C43146000F0ACF8074B1B6803229343064A1268920FE0
:4015800001D1023200E001221343014A136010BD140207400C02074010B5041C00F091F8064B221C1A4006490C68064B234013430B600B6800F089F810BDC046040404004D
:4015C00010020740FBFBFBFF10B5244B1B685B0715D5234B1B685B070ED5224B5969042001401F4C22688A4322605A6982435A619B68002B00D098470420FFF7CDFF174B29
:401600001B685B0518D5164B1B685B0510D5154B59698022D2001140114802688A4302605969114A0A405A61DB68002B00D098478020C000FFF7B0FF084B1B685B030CD57F
:40164000074B1B685B0304D5064B1B69002B00D098478020C002FFF79FFF10BD10020740C400002068010020FFFBFFFF044A11687F230B40C001C0B2184310607047C046BF
:4016800000020440024B18680006C00F7047C0460402044004490A68FB231A408000F73B184010430860704700020440000000000230800803D001300238FCD1C046C04671
:4016C0007047EFF3108072B6704780F310887047014B18687047C04640030940024B1B681F2018407047C04608030940044B1B681F221340082BF9D0024B18607047C046AF
:40170000080209404002094038B5041CFFF7D9FF051C102C05D8104A136803218B43136016E0202C07D80C490B6803229343023A13430B600CE0302C07D807490B6803228C
:401740009343013A13430B6002E00020FFF798FD281CFFF7BAFF38BD30001040014B18687047C046280100200E4B70B500251E1C0D4CE41AA410A54204D0AB00F358984758
:401780000135F8E700F0B0F8084B00251E1C084CE41AA410A54204D0AB00F35898470135F8E770BDF4180000F4180000F4180000FC18000008B5034B011C186800F00CF81E
:4017C00008BDC04628010020031C8218934202D019700133FAE77047032370B5CC1C9C430834051C0C2C01D20C2405E0002C03DA0C2300202B6042E08C42F9D3204A13680D
:40180000101C191C002913D00A68121B0DD40B2A02D90A608B181FE08B4202D15A6802601BE04A685A600B1C17E00B1C4968E9E7144E3368002B03D1281C00F025F83060D1
:40184000281C211C00F020F8031C421CD0D00322C61C964386420AD11C60181C07210B301A1D8843821A0AD05142995007E0311A281C00F009F8431CBAD0331CECE770BD99
:40188000840100208001002038B50023064C051C081C2360FEF7B6FF431C03D12368002B00D02B6038BDC046A40200200000000048656C6C6F20776F726C640A00000000C3
:4018C000722068617070656E65640A00EEDBC9B9AA9B8E82766B60564D443B332C241D17100A040043000000F8B5C046F8BC08BC9E467047B501000081080000F8B5C04634
:40190000F8BC08BC9E4670478D01000020190000980000209800000078010000000000000000000001090000B10E0000990F00008110000069110000A80200200000C05DA1
:4019400080BB000030000000006CDC02040404000000000000000000000000000000000000000000000000000000000000000000E4180000000000000000000000000000AA
:40198000000000000000000000000000000000000000000000000000000000000000000000000000000000000000000000000000C80000200000000000000000000000003F
:4019C00000000000000000000000000000000000000000000000000000000000000000000000000000000000000000000000000000000000000000000000000000000000E7
:401A000000000000000000000000000000000000000000000000000000000000000000000000000000000000000000000000000000000000000000000000000000000000A6
:401A40000000000000000000000000000000000000000000000000000000000000000000000000000000000000000000000000000000000000000000000000000000000066
:401A80000000000000000000000000000000000000000000000000000000000000000000000000000000000000000000000000000000000000000000000000000000000026
:0200000490303A
:02000000A5D584
:0200000490402A
:4000000000000000000000000000000000000000000000000000000000000000000000000000000000000000000000000000000000000000000000000000000000000000C0
:0200000490501A
:0C00000000021B0F11AB00011B16B780A3
:0200000490600A
:0100000001FE
:00000001FF