:4000000000200020110000002D0300002D03000008B500F099FF00F08BF9C04610B512221F4B1A60302000F007FFF42292001D4B1A601D4B1D4A1A60BE21C9011C4A1160DA
:400040001C4A1A60A021C9001B4A11601B4A1A60882189011A4A11601A4A1A6000241A4B1C608022194B1A604223194A1360194A1360194A1360194A13604022184B1A60FA
:400080000132184B1A600B20174900F01FFE0B2000F006FE154B1C60002000F05DFF10BD30001040000401400000014080FF00800803014042FF00800003014040FF00804F
:4000C0000403014041FF008028000340200101401C0101401801014014010140100101400801014004010140F10F00000C02074008B572B6174A184B1A60184A184B1A6084
:4001000080221205174B1A60174A184B1A602322174B1A60174A184B1A602022174B1A601B3A174B1A608232FF32164B1A60473AFF3A154B1A60D8221204144B1A600122DE
:40014000134B1A60134A144B1A60FFF767FF00F037F908BDEE0099000000024008080000000102400002024008EE0000000302400000044024100300080004401800044072
:400180000001044008010440000204400802044000030440860D00000803044010B5064C2378002B07D1054B002B02D0044800E000BF0123237010BDB000002000000000AF
:4001C000B012000008B5084B002B03D00748084900E000BF07480368002B00D108BD064B002BFBD09847F9E700000000B0120000B4000020980000200000000008B5012043
:4002000000F0ECFF00F07CFF024A13680133136008BDC046CC000020F0B58BB062B600F039F900F01FFC00F091FC00F003FD00F057F9252025216A4600F0C6F900F0F8FAB5
:4002400000F0BCFF334800F04DFF334B6A46538001936A46FA218900D180002111811804184300F0C3F82D4800F08CFB012000F0BBFF002700260025294B1B68294A9446A0
:400280006344AB4231DD264B1D6800F065FB722809D105E06B46185D00F0E8FA013400E00024242CF6DD6B461B78002B07D000236A461370019800F099F8194B1F686B4657
:4002C000DA8806335B881B041343FA2292005343DB19134A1268934207DA6B469A1C5B8850880004184300F081F80D4B1B680E4A94466344B342BFDD094B1E6800F080FFCE
:40030000002803D0002000F06FFFB5E7012000F06BFFB1E7FD010000EE020000B4120000CC000020F0D8FFFFE05EF8FFFEE7C04670B50F4E0F4D13E029686B68AC680022A4
:4003400002E001C901C30432A242FAD1E868002202E0002102C304328242FAD11035013E002EE9D100F07EFFFFF756FFFEE7C04601000000FC12000008B500230AE0032B13
:4003800003D89A000949505800E009489900094A88500133232BF2D9FFF7AAFE0022064B1A6080229205054B1A6008BD000000002D030000000000209000002008ED00E064
:4003C0000022014B1A607047000E3F400004000C014B18607047C046080106400004000C014B18607047C046140106400004000C014B18607047C0460C01064038B5041C14
:400400000D1C00F032FCAC40024B1C6000F031FC38BDC0460800064008B500F026FC064A116801230B43136000F023FC01201821FFF7E4FF08BDC04600000640014B1860C6
:400440007047C0463801064010B50D4C8023DB042360236823600020FFF7B8FF236823600C22084B1A600120FFF7E8FF3122064B1A600648FFF7B2FF0548FFF7B7FF10BD62
:4004800000010640240106402801064010270000EE02000008B5064B1B78002B04D1FFF7D3FF0122024B1A70FFF7B6FF08BDC046D000002008B5092000F0F2FB08BDC0469D
:4004C00008B500F01DF808BD08B5044A1368802109060B431360FFF7EDFF08BD00000A4008B5064B1B78002B04D1FFF7E9FF0122024B1A70FFF7E8FF08BDC046D400002078
:4005000010B500241B4B1C601B4A1C4B1A601C4B1C4A13601C4A14601C491D4A11601D4A136002221C4B1A60092000F0C3FB0920032100F0DDFB0920184900F0C7FB184BE9
:400540001C60184B1C603222FF32174B1A60174B1C602E3AFF3A164B1A60164B1C60164B1C70164B1C70164B1C80164B00221A7010BDC04600000A4000F8004060000A40A5
:400580000701008000030A4004030A401000FE0010030A4000020A4004020A40F9050000C80E0A40880E0A40480F0A40080F0A40C80F0A40880F0A400401002008010020BE
:4005C000020100200001002070B5061C0D1C141E0BD0092000F06EFB044B1C60044B1E80044B1D80092000F05BFB70BD0C0100201001002006010020F8B56E4B1B68002BDF
:4006000000D098476C4B1C686C4B1E680223FF331C422AD06A4A13685B005B081360694A117810230B431370674B1B78DB070BD5664B1A78664B1B889A420AD0614A1178BC
:4006400008230B43137004E05E4A117802230B43137000235F4A13605B4A1370584A1368802109060B431360A3E0330744D55A4B1D68554B1B78012B04D0002B16D0032B0C
:4006800028D032E0524B1B88544A1288934209D2534A1268D318EAB21A704D4A13880133138025E00322484B1A7021E04D4B1B88AB4207D9454B1D70454B1D800122424B9D
:4006C0001A7015E0414B1A78414B1A8003223E4B1A700DE0444B1A68802149020A431A601968424A0A401A6002E0002000F0ECFA04223F4B1A6000E00025202121401BD0E9
:400700002D4A402313603B4B3B481860022018602E4F3B7832480068C3181B78DBB2374803602B4805883B78013303800120294B1860146004231E4373071DD5244B1B8871
:40074000284A128893420BD2254A1268D3181B78DBB22A4A13601E4A13880133138002E0FF22264B1A60264B1B681F221340022BE4D11E3A234B1A60E3061AD5002903D1A9
:400780000D4B1C60124B1D88104B1B78AB4205D00D4B1B78DB0703D4022302E0022300E00A231C40074B1A7814431C700022064B1A70F8BDD8000020400F0A40000E0A4018
:4007C00000000A4008010020040100200001002002010020880F0A4040030A40060100200C0100201001002004030A40FFFFFEFFC00F0A4004020A400200010040020A40E6
:4008000008020A40800F0A4008B500F08FF808BD08B500F039F808BD08B5044A1368802109060B431360FFF7EFFF08BD0000094008B5064B1B78002B04D1FFF7E9FF012264
:40084000024B1A70FFF7E8FF08BDC046DC000020014B18687047C04640030940024B1B681F2018407047C04608030940044B1B681F221340082BF9D0024B18607047C0468C
:40088000080209404002094010B5154A154B1A600023154A13600121144A1160144A15480260072414480460144803601448016014490A60144A13600421144A1160144A08
:4008C0001360144A1360144A1360144A1360144A1360144A13601268134B1A8010BDC0460B000002000009404000094048000940070000800003094004030940100309403C
:4009000044000940000209400402094050000940880E0940C80E0940480F0940080F0940C80F0940880F0940DE000020064A1168064B0B40902109040B431360044B1A8826
:40094000044B1A607047C04600000240FFFF0FFFDE000020880F094008B5FFF77FFF002802D0FFF775FF00E00020054B1A68D8239B001A4203D01A1C014B1A60002008BDB8
:40098000C00F094038B5051C002402E0FFF76EFF0134285D0028F9D138BDC0460004000C014B18607047C046480106400004000C014B18607047C046540106400004000CA5
:4009C000014B18607047C0464C01064038B5041C0D1C00F04AF9AC40024B1C6000F049F938BDC0460800064008B500F03EF9064A116802230B43136000F03BF90220182138
:400A0000FFF7E4FF08BDC04600000640014B18607047C0467801064010B50D4C8023DB042360236823600020FFF7B8FF236823600C22084B1A600120FFF7E8FF3122064BE3
:400A40001A600648FFF7B2FF0548FFF7B7FF10BD40010640640106406801064010270000EE02000008B5064B1B78002B04D1FFF7D3FF0122024B1A70FFF7B6FF08BDC04660
:400A8000E00000200004000C014B18607047C046880106400004000C014B18607047C046940106400004000C014B18607047C0468C01064038B5041C0D1C00F0D6F8AC4026
:400AC000024B1C6000F0D5F838BDC0460800064008B500F0CAF8064A116804230B43136000F0C7F804201821FFF7E4FF08BDC04600000640014B18607047C046B801064091
:400B000010B50D4C8023DB042360236823600020FFF7B8FF236823600C22084B1A600120FFF7E8FF3122064B1A600648FFF7B2FF0548FFF7B7FF10BD80010640A401064025
:400B4000A801064010270000DC05000008B5064B1B78002B04D1FFF7D3FF0122024B1A70FFF7B6FF08BDC046E10000200004000C014B18607047C046C80106400004000CE4
:400B8000014B18607047C046D40106400004000C014B18607047C046CC01064038B5041C0D1C00F062F8AC40024B1C6000F061F838BDC0460800064008B500F056F8064AE3
:400BC000116808230B43136000F053F808201821FFF7E4FF08BDC04600000640014B18607047C046F801064010B50D4C8023DB042360236823600020FFF7B8FF236823603E
:400C00000C22084B1A600120FFF7E8FF3122064B1A600648FFF7B2FF0548FFF7B7FF10BDC0010640E4010640E801064010270000DC05000008B5064B1B78002B04D1FFF7D2
:400C4000D3FF0122024B1A70FFF7B6FF08BDC046E2000020000000000230800803D001300238FCD1C046C0467047EFF3108072B6704780F310887047024A1168024B0B4038
:400C80001360704700000740FFFFFFBF034B18688023DB05184000D001207047000007401F2318401E3B8340181C014B1860704700E100E01F2318401E3B8340181C014B13
:400CC0001860704780E100E001BE704738B5041C0D1C132802D90020FFF7F6FFA400034B9C4664442068256038BDC0464000002070B5041C0E1E032E02D90020FFF7E4FF5D
:400D0000132C02D90020FFF7DFFF03252540ED000635FFF7AAFFA408A400074B9C46644423680322AA409343AE40351C1D432560FFF79FFF70BDC04600E400E010B5041C21
:400D400006E0084B1868FFF787FF074B9C46644480231B029C42F4D8024B58686043FFF77BFF10BD9C0000200080FFFF30B583B000F0E0F8002848D0FFF777FF041C244BB6
:400D80001B6807221A409200131C1833214A12681207920FD3401A1C1F4B19681F4B19401F4B53438020C00184466344DB0B013B5B055B0D0B43A02149031943192A02D8FB
:400DC000184A13430BE0184BD31818781A3A174B9B5CC318FF2B00D9FF239B050B430E4A1360134D2B680193302000F011FA114A13688021C9050B4313601420FFF79EFF6D
:400E0000019B2B60201CFFF734FF03B030BDC046080F0340280003400800074000F800C040420F000000D43FCDF1FF0FC01200003000104000000740F0B583B0041E182C6D
:400E40000BD01C2809D0202807D0242805D0282803D02C2801D0302849D1FFF706FF0190FFF714FF002803D0FFF706FF012600E00026214A136807218B4313601F4BE31814
:400E80001B78DBB21E4A13601E4A13688B4313601D4803687F229343191C1C4BE3181B7813400B4303603220FFF7D6FE182C16D9114F3B680725AB431A1C231C1C3B9B08C3
:400EC0002B4013433B603220FFF7C6FE3A68AA43231C183B9B082C1C1C4014433C60012E01D1FFF743FF0198FFF7C3FE02E00020FFF7EAFE03B0F0BD080F0340CDF1FF0F40
:400F00000C0F0340100F0340180F0340B4F1FF0F08B5034B1B7A5843FFF79EFE08BDC0469C000020024B1868800F80077047C0460C020740034B1B68002B01DA012000E0B3
:400F40000020704700000740014A024B1A6070476588EDAC3800034010B5041CFFF7E2FFA0421AD0144A136803218B431360134B1B689B0F01D17C2001E086204000FFF70D
:400F8000C7FFFFF772FE0D4A13689B009B08A40FA4071C431460FFF76CFE074B1B6803229343064A1268920F01D1023200E001221343014A136010BD140207400C0207408D
:400FC00010B5041CFFF751FE064B221C1A4006490C68064B234013430B600B68FFF749FE10BDC0460404040010020740FBFBFBFF10B5244B1B685B0715D5234B1B685B0778
:401000000ED5224B5969042001401F4C22688A4322605A6982435A619B68002B00D098470420FFF7CDFF174B1B685B0518D5164B1B685B0510D5154B59698022D2001140AD
:40104000114802688A4302605969114A0A405A61DB68002B00D098478020C000FFF7B0FF084B1B685B030CD5074B1B685B0304D5064B1B69002B00D098478020C002FFF712
:401080009FFF10BD10020740AC000020E4000020FFFBFFFF8823014AD05070470000002010B5041CFFF7E1FD044A1168044B0B40A4051C431460FFF7DCFD10BD10E400E0B1
:4010C000FFFF3FFF8022D202014B1A607047C04600E100E08022D202014B1A607047C04680E100E010B5041CFFF7F4FF201CFFF7D1FF0320FFF7D4FFFFF7E4FF10BDC04658
:401100008022D202014B1A607047C04680E200E00004000C014B18607047C046080206400004000C014B18607047C046140206400004000C014B18607047C0460C020640C1
:4011400038B5041C0D1CFFF790FDAC40024B1C60FFF78FFD38BDC0460800064008B5FFF784FD064A116810230B431360FFF781FD10201821FFF7E4FF08BDC046000006407E
:40118000014B18607047C0463802064008B50022084B1A600C32084B1A600120FFF7F0FF0A20FFF7BDFF0120FFF7C2FF0020FFF7AFFF08BD000206402402064008B5064B72
:4011C0001B78002B04D1FFF7E1FF0122024B1A70FFF7C4FF08BDC046FC000020014B18607047C04630020640044A11687F230B40C001C0B2184310607047C046000204403E
:40120000024B18680006C00F7047C0460402044038B5041CFFF729FD051C102C05D8104A136803218B43136016E0202C07D80C490B6803229343023A13430B600CE0302C3F
:4012400007D807490B6803229343013A13430B6002E00020FFF738FD281CFFF70AFD38BD300010400E4B70B500251E1C0D4CE41AA410A54204D0AB00F35898470135F8E765
:4012800000F02AF8084B00251E1C084CE41AA410A54204D0AB00F35898470135F8E770BDE4120000E4120000E4120000EC1200000000000048656C6C6F20776F726C640076
:4012C000EEDBC9B9AA9B8E82766B60564D443B332C241D17100A0400F8B5C046F8BC08BC9E467047C501000079030000F8B5C046F8BC08BC9E4670479D0100001013000087
:4013000098000020180000006800000000000000000000000000C05D80BB000030000000006CDC020404040000000000000000000000000000000000000000000000000097
:40134000000000000000000000000000000000000000000000000000000000000000000000000000000000000000000000000000000000000000000000000000000000006D
:40138000000000000000000000000000000000000000000000000000000000000000000000000000000000000000000000000000000000000000000000000000000000002D
:4013C00000000000000000000000000000000000000000000000000000000000000000000000000000000000000000000000000000000000000000000000000000000000ED
:4014000000000000000000000000000000000000000000000000000000000000000000000000000000000000000000000000000000000000000000000000000000000000AC
:0200000490303A
:02000000051DDC
:0200000490402A
:4000000000000000000000000000000000000000000000000000000000000000000000000000000000000000000000000000000000000000000000000000000000000000C0
:0200000490501A
:0C00000000021B0E11AB00011B1416C8FF
:0200000490600A
:0100000001FE
:00000001FF