:400000000020002011000000690800006908000008B501F0B9FA00F043FCC04610B512221C4B1A60302001F027FABC2292011A4B1A601A4B1A4A1A60A021C900194A1160CA
:40004000194A1A6088218901184A1160184A1A600024184B1C604223174A1360174A1360174A1360174A1360174A13604022174B1A600132164B1A600B20164901F046F92F
:400080000B2001F01DF9144B1C60002001F084FA10BDC04630001040080301400000014042FF00800003014040FF00800403014041FF008028000340200101401C010140CD
:4000C0001801014014010140100101400801014004010140311600000C02074008B572B6164A174B1A60174A174B1A60174A184B1A60184A184B1A602322184B1A60184A73
:40010000184B1A602022184B1A601B3A174B1A608232FF32164B1A60463AFF3A154B1A60154A164B1A600122154B1A60154A164B1A60FFF773FF00F0FBFB08BDEE00990034
:40014000000002400808000000010240080000080002024008EE000000030240000004402410030008000440180004400001044008010440000204408601D80008020440B3
:4001800000030440860D00000803044010B5064C2378002B07D1054B002B02D0044800E000BF0123237010BD30010020000000007421000008B5084B002B03D00748084911
:4001C00000E000BF07480368002B00D108BD064B002BFBD09847F9E70000000074210000340100209800002000000000024A1368013313607047C0464C010020F8B562B6E0
:4002000000F006FC00F0DCFE00F04EFF00F0C0FF01F032F8524C201C0021802201F0A3FB504B1C600025C823E5540133E5540133E55402223533E25400F010FC80214900ED
:40024000081C221C00F08AFC00F0BCFD464800F047FE0F20454901F049F8454A454B536045490B6A1B021B0AC020000603430B62956007231360C820C00001F061FB3F4B8A
:400280001860012001F026FA002700263C4B1B680A3BB34250DD3A4B1E6800F00BFE722804D1384800F01CFE00F09AFA2D4B1A68C823D35C012B01D100F04EFA294B1B6814
:4002C000FD229A5C012A0CD1FD32985CC0B200F039FC244B1A680021FD23D154012001F00DFA002524E0AC006419A0002418234B186800190379002B01D100F045F81F4B72
:40030000186800190379012B01D100F0A3F81B4B186800190379022B01D100F035F9174B186800190379032B01D100F0CBF90135134B5B689D42D6DB114B1B68F53BFF3B2C
:40034000BB42A3DD0E4B1F6801F0D0F9002803D0002001F0BFF999E7012001F0BBF995E7880100208802002078210000ED01000010E000E07FBB000000ED00E08C02002081
:400380004C0100208821000038B5437C012B42D1447D827D12022243111CC57D2D042A1C0A43037E1B0613431D1C447A827A12022243C37A1B0413431A1C037B1B0613438F
:4003C000EB18214A126893423DDC457B817B09022943C27B12040A43111C027C12060A439B18194A126893420BDA00234374C3789B00164A9A58437980790002184390470F
:4004000021E0C3789B00114A9A58C379007A00021843904717E0427883781B021343027852001BB20A498A5E93420CDA0123437400238374044B1B684375190A8175190C43
:40044000C1751B0E037638BD4C0100209C0000208801002070B5041C437C012B5DD1C27C037D1B021343427980790002104383422BD1607DA27D12020243111CE57D2D046F
:400480002A1C0A43237E1B0613431D1C607AA27A12020243E37A1B0413431A1C237B1B061343EB18354A1268934266DCE379207A00021843E374030A2375E3789B00304A1A
:4004C0009B5898470023637457E0657DA27D12022A43111CE67D3604321C0A43237E1B0613431E1C657BA27B12022A43E37B1B0413431A1C237C1B061343F3181F4A126835
:4005000093423ADCE074030A2375E3789B001C4A9B589847002363742FE0427883781B021343027852001BB216498A5E934224DA0123437400238374104B1B684375190A17
:400540008175190CC1751B0E0376C37C027D12021A43437980790002184382420DD0E179237A1B020B439A4207D0E074030A2375E3789B00024A9B58984770BD4C010020EA
:400580009C0000208801002070B5837C012B7AD101784900427883781B021343464A525E1BB29A4202DA0023837484E0031CC17C027D12020A43417980790002084382420E
:4005C00032D15C7D997D09022143081CDD7D2D04291C01431A7E12060A43151C5C7A997A09022143DA7A12040A43111C1A7B12060A43AA18314909688A425CDC2F4A12685A
:400600005A75100A9875100CD875120E1A76DA79187A00021043DA74020A1A75DB789B00274A9B58984746E05D7D997D090229430C1CDE7D3604311C21431A7E12060A435F
:40064000161C5D7B997B09022943DA7B12040A43111C1A7C12060A43B218184909688A4229DC164A12685A75140A9C75140CDC75120E1A76D874020A1A75DB789B00104A70
:400680009B58984717E0002B15D101784900427883781B021343084A525E1BB29A420ADD064B1B684375190A8175190CC1751B0E03760123837470BD880100204C010020E4
:4006C0009C00002038B5437C012B28D1447D827D12022243111CC57D2D042A1C0A43037E1B0613431D1C447A827A12022243C37A1B0413431A1C037B1B061343EB18134A60
:400700001268934221DC00234374C3789B00104A9A584379807900021843904715E001784900427883781B0213430A4A525E1BB29A420ADD054B1B684375190A8175190C4C
:40074000C1751B0E03760123437438BD4C0100209C0000208801002010B500221D4B1A601D4B1B68CA215A54C939C93299542AE0C8229A5C002A03D10021C932995428E0CF
:40078000CA229A5C002AF3D0002311E0134A1068104A126891008A1891005218D218191C80310D4C24686118097881540133DBB2182BEBD9074A136801331360064B1A68ED
:4007C0000021CA23D154044B1B68C8229A5C012AD6D010BD50010020880200208C02002070B594B01B4B1D68002D00D1053504A81949192201F070F904A800F071FB174B14
:400800001A6804A8164901F067F904A800F068FB00241AE0A20012199300D2180F4B1B689A1813785078917809020143D67810790AB200920196029004A80A49221C01F0BD
:400840004BF904A800F04CFB0134AC42E2DB14B070BDC04650010020942100008C020020B0210000CC210000FEE7C04608B5031C094A1068C318094A9A1AA02109018A42DD
:4008800002DC054A136005E001F02EF80C2303600120404208BDC046B0000020A802002070B50F4E0F4D13E029686B68AC68002202E001C901C30432A242FAD1E8680022D0
:4008C00002E0002102C304328242FAD11035013E002EE9D101F00EF8FFF790FCFEE7C046010000006822000008B500230AE0032B03D89A000949505800E009489900094A8C
:4009000088500133232BF2D9FFF7E8FB0022064B1A6080229205054B1A6008BD0000000069080000000000209000002008ED00E00322034B1A600022024B1A607047C0465B
:4009400030003040000E3F400004000C014B18607047C046080106400004000C014B18607047C046140106400004000C014B18607047C0460C01064038B5041C0D1C00F074
:40098000D4FEAC40024B1C6000F0D3FE38BDC0460800064008B500F0C8FE064A116801230B43136000F0C5FE01201821FFF7E4FF08BDC04600000640014B18607047C0460D
:4009C0003801064010B50D4C8023DB042360236823600020FFF7B8FF236823600C22084B1A600120FFF7E8FF3122064B1A600648FFF7B2FF0548FFF7B7FF10BD0001064053
:400A00002401064028010640204E0000DC05000008B5064B1B78002B04D1FFF7D3FF0122024B1A70FFF7B6FF08BDC0465401002008B5092000F044FC08BDC04608B500F0B1
:400A40001DF808BD08B5044A1368802109060B431360FFF7EDFF08BD00000A4008B5064B1B78002B04D1FFF7E9FF0122024B1A70FFF7E8FF08BDC0465801002010B5002431
:400A80001B4B1C601B4A1C4B1A601C4B1C4A13601C4A14601C491D4A11601D4A136002221C4B1A60092000F015FC0920032100F03FFC0920184900F029FC184B1C60184B55
:400AC0001C603222FF32174B1A60174B1C602E3AFF3A164B1A60164B1C60164B1C70164B1C70164B1C80164B00221A7010BDC04600000A4000F8004060000A400701008077
:400B000000030A4004030A401000FE0010030A4000020A4004020A408D0B0000C80E0A40880E0A40480F0A40080F0A40C80F0A40880F0A4094020020980200209202002050
:400B400090020020044A1368FF218B4340000840184310607047C04610030A4070B5061C0D1C141E0BD0092000F0B4FB044B1C60044B1E80044B1D80092000F0A1FB70BDD4
:400B80009C020020A002002096020020F8B56E4B1B68002B00D098476C4B1C686C4B1E680223FF331C422AD06A4A13685B005B081360694A117810230B431370674B1B782E
:400BC000DB070BD5664B1A78664B1B889A420AD0614A117808230B43137004E05E4A117802230B43137000235F4A13605B4A1370584A1368802109060B431360A3E03307F9
:400C000044D55A4B1D68554B1B78012B04D0002B16D0032B28D032E0524B1B88544A1288934209D2534A1268D318EAB21A704D4A13880133138025E00322484B1A7021E064
:400C40004D4B1B88AB4207D9454B1D70454B1D800122424B1A7015E0414B1A78414B1A8003223E4B1A700DE0444B1A68802149020A431A601968424A0A401A6002E00020F3
:400C800000F032FB04223F4B1A6000E00025202121401BD02D4A402313603B4B3B481860022018602E4F3B7832480068C3181B78DBB2374803602B4805883B78013303809A
:400CC0000120294B1860146004231E4373071DD5244B1B88284A128893420BD2254A1268D3181B78DBB22A4A13601E4A13880133138002E0FF22264B1A60264B1B681F22E7
:400D00001340022BE4D11E3A234B1A60E3061AD5002903D10D4B1C60124B1D88104B1B78AB4205D00D4B1B78DB0703D4022302E0022300E00A231C40074B1A7814431C70E3
:400D40000022064B1A70F8BD5C010020400F0A40000E0A4000000A4098020020940200209002002092020020880F0A4040030A40960200209C020020A002002004030A403C
:400D8000FFFFFEFFC00F0A4004020A400200010040020A4008020A40800F0A4008B500F073F808BD08B500F01DF808BD08B5044A1368802109060B431360FFF7EFFF08BD0F
:400DC0000000094008B5064B1B78002B04D1FFF7E9FF0122024B1A70FFF7E8FF08BDC0466001002010B5154A154B1A600023154A13600121144A1160144A154802600724DC
:400E000014480460144803601448016014490A60144A13600421144A1160144A1360144A1360144A1360144A1360144A1360144A13601268134B1A8010BDC0460B000002B2
:400E40000000094040000940480009400700008000030940040309401003094044000940000209400402094050000940880E0940C80E0940480F0940080F0940C80F0940B2
:400E8000880F094062010020064A1168064B0B40902109040B431360044B1A88044B1A607047C04600000240FFFF0FFF62010020880F094008B500F045FC002802D000F0EB
:400EC0003BFC00E00020054B1A68D8239B001A4203D01A1C014B1A60002008BDC00F094038B5051C002402E000F034FC0134285D0028F9D138BDC0460004000C014B18607C
:400F00007047C046480106400004000C014B18607047C046540106400004000C014B18607047C0464C01064038B5041C0D1C00F0FCFBAC40024B1C6000F0FBFB38BDC04662
:400F40000800064008B500F0F0FB064A116802230B43136000F0EDFB02201821FFF7E4FF08BDC04600000640014B18607047C0467801064010B50D4C8023DB0423602368D1
:400F800023600020FFF7B8FF236823600C22084B1A600120FFF7E8FF3122064B1A600648FFF7B2FF0548FFF7B7FF10BD400106406401064068010640204E0000DC050000D1
:400FC00008B5064B1B78002B04D1FFF7D3FF0122024B1A70FFF7B6FF08BDC046640100200004000C014B18607047C046880106400004000C014B18607047C04694010640C7
:401000000004000C014B18607047C0468C01064038B5041C0D1C00F088FBAC40024B1C6000F087FB38BDC0460800064008B500F07CFB064A116804230B43136000F079FBFA
:4010400004201821FFF7E4FF08BDC04600000640014B18607047C046B801064010B50D4C8023DB042360236823600020FFF7B8FF236823600C22084B1A600120FFF7E8FFA4
:401080003122064B1A600648FFF7B2FF0548FFF7B7FF10BD80010640A4010640A8010640204E0000DC05000008B5064B1B78002B04D1FFF7D3FF0122024B1A70FFF7B6FF59
:4010C00008BDC046650100200004000C014B18607047C046C80106400004000C014B18607047C046D40106400004000C014B18607047C046CC01064038B5041C0D1C00F089
:4011000014FBAC40024B1C6000F013FB38BDC0460800064008B500F008FB064A116808230B43136000F005FB08201821FFF7E4FF08BDC04600000640014B18607047C04683
:40114000F801064010B50D4C8023DB042360236823600020FFF7B8FF236823600C22084B1A600120FFF7E8FF3122064B1A600648FFF7B2FF0548FFF7B7FF10BDC00106404B
:40118000E4010640E8010640204E0000DC05000008B5064B1B78002B04D1FFF7D3FF0122024B1A70FFF7B6FF08BDC046660100200004000C014B18607047C0460802064045
:4011C0000004000C014B18607047C046140206400004000C014B18607047C0460C02064038B5041C0D1C00F0A0FAAC40024B1C6000F09FFA38BDC0460800064008B500F029
:4012000094FA064A116810230B43136000F091FA10201821FFF7E4FF08BDC04600000640014B18607047C0463802064010B50D4C8023DB042360236823600020FFF7B8FF96
:40124000236823600C22084B1A600120FFF7E8FF3122064B1A600648FFF7B2FF0548FFF7B7FF10BD000206402402064028020640204E0000DC05000008B5064B1B78002B4F
:4012800004D1FFF7D3FF0122024B1A70FFF7B6FF08BDC04667010020024A1168024B0B401360704700000740FFFFFFBF034B18688023DB05184000D0012070470000074077
:4012C0001F2318401E3B8340181C014B1860704700E100E01F2318401E3B8340181C014B1860704780E100E001BE704738B5041C0D1C0F2802D90020FFF7F6FFA400802312
:401300009B059C4664442068256038BD38B5041C0D1C132802D90020FFF7E6FFA400034B9C4664442068256038BDC0464000002070B5041C0E1E032E02D90020FFF7D4FFF0
:40134000132C02D90020FFF7CFFF03252540ED00063500F0EAF9A408A400074B9C46644423680322AA409343AE40351C1D43256000F0DFF970BDC04600E400E010B5041C83
:4013800006E0084B186800F0C7F9074B9C46644480231B029C42F4D8024B5868604300F0BBF910BDB40000200080FFFF30B583B000F0E0F8002848D000F0B7F9041C244BBC
:4013C0001B6807221A409200131C1833214A12681207920FD3401A1C1F4B19681F4B19401F4B53438020C00184466344DB0B013B5B055B0D0B43A02149031943192A02D8B5
:40140000184A13430BE0184BD31818781A3A174B9B5CC318FF2B00D9FF239B050B430E4A1360134D2B680193302000F0A1F9114A13688021C9050B4313601420FFF79EFF97
:40144000019B2B60201C00F074F903B030BDC046080F0340280003400800074000F800C040420F000000D43FCDF1FF0FF42100003000104000000740F0B583B0041E182CB0
:401480000BD01C2809D0202807D0242805D0282803D02C2801D0302849D100F046F90190FFF704FF002803D0FFF7F6FE012600E00026214A136807218B4313601F4BE318BB
:4014C0001B78DBB21E4A13601E4A13688B4313601D4803687F229343191C1C4BE3181B7813400B430360322000F016F9182C16D9114F3B680725AB431A1C231C1C3B9B0848
:401500002B4013433B60322000F006F93A68AA43231C183B9B082C1C1C4014433C60012E01D1FFF743FF019800F003F902E00020FFF7DAFE03B0F0BD080F0340CDF1FF0F9F
:401540000C0F0340100F0340180F0340B4F1FF0F08B5034B1B7A584300F0DEF808BDC046B4000020024B1868800F80077047C0460C020740034B1B68002B01DA012000E021
:401580000020704700000740014A024B1A6070476588EDAC3800034010B5041CFFF7E2FFA0421AD0144A136803218B431360134B1B689B0F01D17C2001E086204000FFF7C7
:4015C000C7FF00F0B2F80D4A13689B009B08A40FA4071C43146000F0ACF8074B1B6803229343064A1268920F01D1023200E001221343014A136010BD140207400C020740DF
:4016000010B5041C00F091F8064B221C1A4006490C68064B234013430B600B6800F089F810BDC0460404040010020740FBFBFBFF10B5244B1B685B0715D5234B1B685B07C9
:401640000ED5224B5969042001401F4C22688A4322605A6982435A619B68002B00D098470420FFF7CDFF174B1B685B0518D5164B1B685B0510D5154B59698022D200114067
:40168000114802688A4302605969114A0A405A61DB68002B00D098478020C000FFF7B0FF084B1B685B030CD5074B1B685B0304D5064B1B69002B00D098478020C002FFF7CC
:4016C0009FFF10BD10020740C400002068010020FFFBFFFF044A11687F230B40C001C0B2184310607047C04600020440024B18680006C00F7047C0460402044004490A68A4
:40170000FB231A408000F73B184010430860704700020440000000000230800803D001300238FCD1C046C0467047EFF3108072B6704780F310887047014B18687047C0464B
:4017400040030940024B1B681F2018407047C04608030940044B1B681F221340082BF9D0024B18607047C046080209404002094038B5041CFFF7D9FF051C102C05D8104A34
:40178000136803218B43136016E0202C07D80C490B6803229343023A13430B600CE0302C07D807490B6803229343013A13430B6002E00020FFF798FD281CFFF7BAFF38BD12
:4017C00030001040002243088B4274D303098B425FD3030A8B4244D3030B8B4228D3030C8B420DD3FF22090212BA030C8B4202D31212090265D0030B8B4219D300E0090A93
:40180000C30B8B4201D3CB03C01A5241830B8B4201D38B03C01A5241430B8B4201D34B03C01A5241030B8B4201D30B03C01A5241C30A8B4201D3CB02C01A5241830A8B42FE
:4018400001D38B02C01A5241430A8B4201D34B02C01A5241030A8B4201D30B02C01A5241CDD2C3098B4201D3CB01C01A524183098B4201D38B01C01A524143098B4201D372
:401880004B01C01A524103098B4201D30B01C01A5241C3088B4201D3CB00C01A524183088B4201D38B00C01A524143088B4201D34B00C01A5241411A00D201465241104680
:4018C0007047FFE701B5002000F00CF802BDC0460029F7D003B5FFF775FF0EBC4243891A1847C0467047C046014B18687047C046280100200E4B70B500251E1C0D4CE41A90
:40190000A410A54204D0AB00F35898470135F8E700F098FC084B00251E1C084CE41AA410A54204D0AB00F35898470135F8E770BD5022000050220000502200005822000070
:4019400008B5034B011C186800F05CF808BDC04628010020002310B5934203D0CC5CC4540133F9E710BD031C8218934202D019700133FAE77047000030B500293ED00439A8
:401980000B68002B00DAC9181D4A1368141C002B02D14B60116031E099420DD208680A189A4203D11368C3180B6053684B60216024E08A4203D8131C5A68002AF9D11D68D8
:4019C0005C198C420BD10968691858181960904214D110685268091819605A600EE08C4202D90C23036009E008680C18944203D114685268001908604A60596030BDC04653
:401A000084010020032370B5CC1C9C430834051C0C2C01D20C2405E0002C03DA0C2300202B6042E08C42F9D3204A1368101C191C002913D00A68121B0DD40B2A02D90A6087
:401A40008B181FE08B4202D15A6802601BE04A685A600B1C17E00B1C4968E9E7144E3368002B03D1281C00F025F83060281C211C00F020F8031C421CD0D00322C61C964370
:401A800086420AD11C60181C07210B301A1D8843821A0AD05142995007E0311A281C00F009F8431CBAD0331CECE770BD840100208001002038B50023064C051C081C23606D
:401AC000FEF7D4FE431C03D12368002B00D02B6038BDC046A40200200EB410B59DB002A9029008610B48822488604861012040421FABC881084804CBA400006801938C8194
:401B000000F06CF80023029A13701DB010BC08BC03B01847FFFFFF7F28010020F0B58E6885B0071C0C1C03920193B34245D390238A89DB001A423DD00325096923680198C2
:401B40005B1A029363695D43EB0F5D19029B6D1001331B189D4200D21D1C381C53050FD5291CFFF74FFF061E13D0029A2169FFF7F1FEA289184B134080221343A38111E0FB
:401B80002A1C00F0C6FA061E0CD1381C2169FFF7F3FE0C23402201203B60A38940421343A38117E0029B2661F61826606561019EED1AA560019BB34200D2019E321C2068FC
:401BC000039900F092FA0020A3689B1BA36023689E19266005B0F0BD7FFBFFFFF0B59FB0029005938B890E1C171C1B0610D50B69002B0DD14021FFF705FF30603061002891
:401C000004D10C23029A01381360D0E040237361002306AD6B6120336B761033AB763C1C2378002B03D1E31B049312D003E0252BF9D00134F4E7049B0298311C3A1CFFF7F0
:401C40006DFF431C00D1ACE06A69049B944663446B612378002B00D1A3E00122002352426A6002A95432521801342B60EB60AB601370AB654F4F2178381C052200F02AFAB5
:401C8000002808D0C01B01278740381C2B68013418432860EEE72B68DA0604D55322202102A8121811701A0704D553222B2102A81218117022782A2A01D0099B0EE0059A2F
:401CC000111D12680591002A01DB099204E05242EA60022213432B60013409E02278303A092A04D80A214B4301349B18F6E7099323782E2B18D163782A2B09D1059B023436
:401D00001A1D1B680592002B0DDA01235B420AE0002301342278303A092A04D80A214B4301349B18F6E70793234F2178381C032200F0D0F9002807D0C01B40278740381C79
:401D40002B6801341843286021781C480622671C297600F0BFF9002812D0194B002B06D10722059B073393430833059314E005AB00930298291C321C124B00E000BF07E066
:401D800005AB00930298291C321C0E4B00F08AF80390039B013304D06B69039A9B186B613DE7B3890B985B0601D5012040421FB0F0BDC0460E2200001422000018220000C0
:401DC000000000001D1B0000F7B5171C01930A698B6800900C1C934200DA131C221C3B6043321278002A01D001333B6023689B0602D53B6802333B60062523681D401ED023
:401E0000231C43331B785A1E9341226892061CD53020E1184031C870211C5A1C45310978A21840320233D1700FE0221C0123009801991932089EB047431C0ED00135E36894
:401E40003A689B1A9D42F0DBDAE7221C009801994332089DA847431C02D10120404220E006232068E1683A6803400025042B03D18D1AEB43DB171D40A3682269934201DDDE
:401E80009B1AED180027AF420ADA221C0123009801991A32089EB047431CDED00137F2E70020FEBDF0B58BB006920A1C43320793059004920A7E0C1C109B6E2A00D1A8E0D2
:401EC00011D8632A22D009D8002A00D1B2E0582A00D0C2E045310A707C4A4FE0642A1DD0692A1BD0B9E0732A00D1A7E009D86F2A29D0702A00D0B0E0202209680A432260BD
:401F000037E0752A1FD0782A33D0A6E00E1C1A684236111D196013683370A1E021681A68080606D4490604D5111D19600023D55E02E0111D19601568002D3BDA2D23049A19
:401F40006D42137036E021681A68080606D4490604D51568111D1960ADB202E0111D196015685A4B227E03930A276F2A1DD108271BE0221C782145321170554A1968039234
:401F8000081D226818600D68100602D4500600D5ADB2D30702D520231A4322601027002D03D1202322689A432260231C002243331A7002E00A27454B03936368A360002B45
:401FC00003DB0422216891432160002D02D1049E002B0ED0049E281C391CFFF779FC039B013E5B5C281C3370391CFFF7EBFB051EF1D1082F09D12368DB0706D5636822696E
:40200000934202DC3023013E3370049B9B1B23612BE009681A68080607D4490605D5111D19601368A28A1A8004E0111D1960136862691A600023049E236116E01A68111DAD
:40204000196016680021301C626800F043F8002801D0801B6060636803E0261C42363270012323610023049A1370079B05980093211C069B09AAFFF7A7FE431C02D101206C
:40208000404221E0236905980699321C079DA847431CF4D023689B0705D4099BE068984212DA181C10E00025E368099A9B1A9D42F3DA221C0123059806991932079EB047FC
:4020C000431CDCD00135EFE70BB0F0BD1F22000030220000C9B28218904204D003788B4202D00130F8E70020704710B5814208D28B18984205D29B1A013A09D3995C8154C6
:40210000FAE70023934203D0CC5CC4540133F9E710BDF8B5061C0C1C151C002904D1111CFFF770FC041C18E0002A03D1FFF724FC2C1C12E000F013F8A8420ED2301C291C61
:40214000FFF760FC071E07D0211C2A1CFFF702FC301C211CFFF710FC3C1C201CF8BD0B1F1A68101F002A04DA891804390B68D018043870470000000048656C6C6F20776FBD
:40218000726C640A00000000722068617070656E65640A0053697A656F662073747275637420736572766F3A2025640A000000006C6F636174696F6E206F66206265686183
:4021C00076696F72733A2025700A00004265686176696F722025783A2043682025782C20542025782C20532025782C204D2025780A000000EEDBC9B9AA9B8E82766B6056B4
:402200004D443B332C241D17100A04004300232D302B2000686C4C0065666745464700303132333435363738394142434445460030313233343536373839616263646566C7
:4022400000000000F8B5C046F8BC08BC9E467047B5010000E9080000F8B5C046F8BC08BC9E4670478D010000782200009800002098000000780100000000000069090000C8
:40228000190F000001100000E9100000D1110000A80200200000C05D80BB000030000000006CDC020404040000000000000000000000000000000000000000000000000062
:4022C00000000000000000000C22000000000000000000000000000000000000000000000000000000000000000000000000000000000000000000000000000000000000B0
:402300000000000000000000C800002000000000000000000000000000000000000000000000000000000000000000000000000000000000000000000000000000000000B5
:40234000000000000000000000000000000000000000000000000000000000000000000000000000000000000000000000000000000000000000000000000000000000005D
:40238000000000000000000000000000000000000000000000000000000000000000000000000000000000000000000000000000000000000000000000000000000000001D
:4023C00000000000000000000000000000000000000000000000000000000000000000000000000000000000000000000000000000000000000000000000000000000000DD
:40240000000000000000000000000000000000000000000000000000000000000000000000000000000000000000000000000000000000000000000000000000000000009C
:0200000490303A
:02000000B66FD9
:0200000490402A
:4000000000000000000000000000000000000000000000000000000000000000000000000000000000000000000000000000000000000000000000000000000000000000C0
:0200000490501A
:0C00000000021B0F11AB00011B19C81AF5
:0200000490600A
:0100000001FE
:00000001FF