:4000000000200020110000000D0400000D04000008B501F08DF800F0FBF9C04610B512221C4B1A60302000F0FBFFBC2292011A4B1A601A4B1A4A1A60A021C900194A11602B
:40004000194A1A6088218901184A1160184A1A600024184B1C604223174A1360174A1360174A1360174A1360174A13604022174B1A600132164B1A600B20164900F01AFF56
:400080000B2000F0F1FE144B1C60002001F058F810BDC04630001040080301400000014042FF00800003014040FF00800403014041FF008028000340200101401C01014023
:4000C0001801014014010140100101400801014004010140D91100000C02074008B572B6164A174B1A60174A174B1A60174A184B1A60184A184B1A602322184B1A60184AD0
:40010000184B1A602022184B1A601B3A174B1A608232FF32164B1A60463AFF3A154B1A60154A164B1A600122154B1A60154A164B1A60FFF773FF00F0B3F908BDEE0099007E
:40014000000002400808000000010240080000080002024008EE000000030240000004402410030008000440180004400001044008010440000204400600D8000802044034
:4001800000030440860D00000803044010B5064C2378002B07D1054B002B02D0044800E000BF0123237010BDB0000020000000004413000008B5084B002B03D007480849D0
:4001C00000E000BF07480368002B00D108BD064B002BFBD09847F9E70000000044130000B40000209800002000000000024A1368013313607047C046CC000020F0B55F469B
:4002000056464D464446F0B48FB062B600F0B2F900F098FC00F00AFD00F07CFD00F0EEFD00F0CEF92520252104AA00F03DFA00F06FFB0F206D4900F02DFE6D4A2F23536083
:400240006C490B6A1B021B0AC020000603430B62002393600721116004AA13705370664B5380059304AAFA27BF00D780002111811A041A430392101C00F028F95F4800F03E
:40028000F1FB012000F0FAFF002302939B469846002600255A4B1B685A4A94466344AB4200DC8DE0564B1D6800F0C6FB722809D105E004AB185D00F049FB013400E0002442
:4002C000242CF6DD04AB1B78002B30D0022000F029FE4B4B1B68984604AB5B78994604AB5A8802335B881B0413430193059B9A4604ABDA881F893F041743002304AA137001
:400300004B46002B02D1504600F0E0F804AB5B78022B06D1029B002B06D0002302939B4605E001239B4602E0012302939B46FA239B007B434344324A1268934240DA5B462A
:40034000002B3DD02E4B1B6898464B46002B06D1019C201C00F0BAF80394002302934B46012B12D1039B019A934207D1504600F0ADF8534603930023029306E0019C201CB7
:4003800000F0A4F80394002302934B46022B12D1029B002B12D0039B019A934205D1504600F094F8534603930AE0019C201C00F08DF8039404E000239B4601E000239B4656
:4003C0000F4B1B68104A94466344B34200DC61E70B4B1E6800F05EFF002803D0002000F04DFF57E7012000F049FF53E7ED01000010E000E000ED00E0DC0500004813000014
:40040000CC000020F0D8FFFFE05EF8FFFEE7C04670B50F4E0F4D13E029686B68AC68002202E001C901C30432A242FAD1E868002202E0002102C304328242FAD11035013EA7
:40044000002EE9D100F058FFFFF7D8FEFEE7C046010000009013000008B500230AE0032B03D89A000949505800E009489900094A88500133232BF2D9FFF730FE0022064BB2
:400480001A6080229205054B1A6008BD000000000D040000000000209000002008ED00E00022014B1A607047000E3F400004000C014B18607047C046080106400004000C28
:4004C000014B18607047C046140106400004000C014B18607047C0460C01064038B5041C0D1C00F0A6FCAC40024B1C6000F0A5FC38BDC0460800064008B500F09AFC064A52
:40050000116801230B43136000F097FC01201821FFF7E4FF08BDC04600000640014B18607047C0463801064010B50D4C8023DB042360236823600020FFF7B8FF236823608A
:400540000C22084B1A600120FFF7E8FF3122064B1A600648FFF7B2FF0548FFF7B7FF10BD000106402401064028010640204E0000DC05000008B5064B1B78002B04D1FFF7A2
:40058000D3FF0122024B1A70FFF7B6FF08BDC046D000002008B5092000F066FC08BDC04608B500F01DF808BD08B5044A1368802109060B431360FFF7EDFF08BD00000A4097
:4005C00008B5064B1B78002B04D1FFF7E9FF0122024B1A70FFF7E8FF08BDC046D400002010B500241B4B1C601B4A1C4B1A601C4B1C4A13601C4A14601C491D4A11601D4A17
:40060000136002221C4B1A60092000F037FC0920032100F061FC0920184900F04BFC184B1C60184B1C603222FF32174B1A60174B1C602E3AFF3A164B1A60164B1C60164BE4
:400640001C70164B1C70164B1C80164B00221A7010BDC04600000A4000F8004060000A400701008000030A4004030A401000FE0010030A4000020A4004020A40D9060000EC
:40068000C80E0A40880E0A40480F0A40080F0A40C80F0A40880F0A400001002004010020FE000020FC00002070B5061C0D1C141E0BD0092000F0E2FB044B1C60044B1E808B
:4006C000044B1D80092000F0CFFB70BD080100200C01002002010020F8B56E4B1B68002B00D098476C4B1C686C4B1E680223FF331C422AD06A4A13685B005B081360694A88
:40070000117810230B431370674B1B78DB070BD5664B1A78664B1B889A420AD0614A117808230B43137004E05E4A117802230B43137000235F4A13605B4A1370584A136819
:40074000802109060B431360A3E0330744D55A4B1D68554B1B78012B04D0002B16D0032B28D032E0524B1B88544A1288934209D2534A1268D318EAB21A704D4A13880133D6
:40078000138025E00322484B1A7021E04D4B1B88AB4207D9454B1D70454B1D800122424B1A7015E0414B1A78414B1A8003223E4B1A700DE0444B1A68802149020A431A60B0
:4007C0001968424A0A401A6002E0002000F060FB04223F4B1A6000E00025202121401BD02D4A402313603B4B3B481860022018602E4F3B7832480068C3181B78DBB237482B
:4008000003602B4805883B78013303800120294B1860146004231E4373071DD5244B1B88284A128893420BD2254A1268D3181B78DBB22A4A13601E4A13880133138002E01F
:40084000FF22264B1A60264B1B681F221340022BE4D11E3A234B1A60E3061AD5002903D10D4B1C60124B1D88104B1B78AB4205D00D4B1B78DB0703D4022302E0022300E0B7
:400880000A231C40074B1A7814431C700022064B1A70F8BDD8000020400F0A40000E0A4000000A400401002000010020FC000020FE000020880F0A4040030A4002010020F2
:4008C000080100200C01002004030A40FFFFFEFFC00F0A4004020A400200010040020A4008020A40800F0A4008B500F08FF808BD08B500F039F808BD08B5044A136880216E
:4009000009060B431360FFF7EFFF08BD0000094008B5064B1B78002B04D1FFF7E9FF0122024B1A70FFF7E8FF08BDC046DC000020014B18687047C04640030940024B1B68F3
:400940001F2018407047C04608030940044B1B681F221340082BF9D0024B18607047C046080209404002094010B5154A154B1A600023154A13600121144A1160144A15486E
:400980000260072414480460144803601448016014490A60144A13600421144A1160144A1360144A1360144A1360144A1360144A1360144A13601268134B1A8010BDC046B7
:4009C0000B0000020000094040000940480009400700008000030940040309401003094044000940000209400402094050000940880E0940C80E0940480F0940080F09404A
:400A0000C80F0940880F0940DE000020064A1168064B0B40902109040B431360044B1A88044B1A607047C04600000240FFFF0FFFDE000020880F094008B5FFF77FFF0028D8
:400A400002D0FFF775FF00E00020054B1A68D8239B001A4203D01A1C014B1A60002008BDC00F094038B5051C002402E0FFF76EFF0134285D0028F9D138BDC0460004000C7C
:400A8000014B18607047C046480106400004000C014B18607047C046540106400004000C014B18607047C0464C01064038B5041C0D1C00F0BEF9AC40024B1C6000F0BDF99E
:400AC00038BDC0460800064008B500F0B2F9064A116802230B43136000F0AFF902201821FFF7E4FF08BDC04600000640014B18607047C0467801064010B50D4C8023DB04E9
:400B00002360236823600020FFF7B8FF236823600C22084B1A600120FFF7E8FF3122064B1A600648FFF7B2FF0548FFF7B7FF10BD400106406401064068010640204E000028
:400B4000DC05000008B5064B1B78002B04D1FFF7D3FF0122024B1A70FFF7B6FF08BDC046E00000200004000C014B18607047C046880106400004000C014B18607047C046CA
:400B8000940106400004000C014B18607047C0468C01064038B5041C0D1C00F04AF9AC40024B1C6000F049F938BDC0460800064008B500F03EF9064A116804230B431360C8
:400BC00000F03BF904201821FFF7E4FF08BDC04600000640014B18607047C046B801064010B50D4C8023DB042360236823600020FFF7B8FF236823600C22084B1A600120E2
:400C0000FFF7E8FF3122064B1A600648FFF7B2FF0548FFF7B7FF10BD80010640A4010640A8010640204E0000DC05000008B5064B1B78002B04D1FFF7D3FF0122024B1A70AB
:400C4000FFF7B6FF08BDC046E10000200004000C014B18607047C046C80106400004000C014B18607047C046D40106400004000C014B18607047C046CC01064038B5041C00
:400C80000D1C00F0D6F8AC40024B1C6000F0D5F838BDC0460800064008B500F0CAF8064A116808230B43136000F0C7F808201821FFF7E4FF08BDC04600000640014B1860B0
:400CC0007047C046F801064010B50D4C8023DB042360236823600020FFF7B8FF236823600C22084B1A600120FFF7E8FF3122064B1A600648FFF7B2FF0548FFF7B7FF10BD1A
:400D0000C0010640E4010640E8010640204E0000DC05000008B5064B1B78002B04D1FFF7D3FF0122024B1A70FFF7B6FF08BDC046E20000200004000C014B18607047C04697
:400D4000080206400004000C014B18607047C046140206400004000C014B18607047C0460C02064038B5041C0D1C00F062F8AC40024B1C6000F061F838BDC046080006408A
:400D800008B500F056F8064A116810230B43136000F053F810201821FFF7E4FF08BDC04600000640014B18607047C0463802064010B50D4C8023DB0423602368236000209B
:400DC000FFF7B8FF236823600C22084B1A600120FFF7E8FF3122064B1A600648FFF7B2FF0548FFF7B7FF10BD000206402402064028020640204E0000DC05000008B5064BE5
:400E00001B78002B04D1FFF7D3FF0122024B1A70FFF7B6FF08BDC046E3000020000000000230800803D001300238FCD1C046C0467047EFF3108072B6704780F31088704749
:400E4000024A1168024B0B401360704700000740FFFFFFBF034B18688023DB05184000D001207047000007401F2318401E3B8340181C014B1860704700E100E01F23184090
:400E80001E3B8340181C014B1860704780E100E001BE704738B5041C0D1C0F2802D90020FFF7F6FFA40080239B059C4664442068256038BD38B5041C0D1C132802D900207E
:400EC000FFF7E6FFA400034B9C4664442068256038BDC0464000002070B5041C0E1E032E02D90020FFF7D4FF132C02D90020FFF7CFFF03252540ED000635FFF79AFFA408DF
:400F0000A400074B9C46644423680322AA409343AE40351C1D432560FFF78FFF70BDC04600E400E010B5041C06E0084B1868FFF777FF074B9C46644480231B029C42F4D8D2
:400F4000024B58686043FFF76BFF10BD9C0000200080FFFF30B583B000F0E0F8002848D0FFF767FF041C244B1B6807221A409200131C1833214A12681207920FD3401A1C55
:400F80001F4B19681F4B19401F4B53438020C00184466344DB0B013B5B055B0D0B43A02149031943192A02D8184A13430BE0184BD31818781A3A174B9B5CC318FF2B00D9E7
:400FC000FF239B050B430E4A1360134D2B680193302000F067F9114A13688021C9050B4313601420FFF79EFF019B2B60201CFFF724FF03B030BDC046080F0340280003403B
:401000000800074000F800C040420F000000D43FCDF1FF0F541300003000104000000740F0B583B0041E182C0BD01C2809D0202807D0242805D0282803D02C2801D03028F5
:4010400049D1FFF7F6FE0190FFF704FF002803D0FFF7F6FE012600E00026214A136807218B4313601F4BE3181B78DBB21E4A13601E4A13688B4313601D4803687F229343B6
:40108000191C1C4BE3181B7813400B4303603220FFF7C6FE182C16D9114F3B680725AB431A1C231C1C3B9B082B4013433B603220FFF7B6FE3A68AA43231C183B9B082C1CD3
:4010C0001C4014433C60012E01D1FFF743FF0198FFF7B3FE02E00020FFF7DAFE03B0F0BD080F0340CDF1FF0F0C0F0340100F0340180F0340B4F1FF0F08B5034B1B7A5843BA
:40110000FFF78EFE08BDC0469C000020024B1868800F80077047C0460C020740034B1B68002B01DA012000E00020704700000740014A024B1A6070476588EDAC38000340F1
:4011400010B5041CFFF7E2FFA0421AD0144A136803218B431360134B1B689B0F01D17C2001E086204000FFF7C7FFFFF762FE0D4A13689B009B08A40FA4071C431460FFF7A0
:401180005CFE074B1B6803229343064A1268920F01D1023200E001221343014A136010BD140207400C02074010B5041CFFF741FE064B221C1A4006490C68064B234013432E
:4011C0000B600B68FFF739FE10BDC0460404040010020740FBFBFBFF10B5244B1B685B0715D5234B1B685B070ED5224B5969042001401F4C22688A4322605A6982435A6168
:401200009B68002B00D098470420FFF7CDFF174B1B685B0518D5164B1B685B0510D5154B59698022D2001140114802688A4302605969114A0A405A61DB68002B00D0984778
:401240008020C000FFF7B0FF084B1B685B030CD5074B1B685B0304D5064B1B69002B00D098478020C002FFF79FFF10BD10020740AC000020E4000020FFFBFFFF044A1168EE
:401280007F230B40C001C0B2184310607047C04600020440024B18680006C00F7047C0460402044038B5041CFFF7C3FD051C102C05D8104A136803218B43136016E0202C1E
:4012C00007D80C490B6803229343023A13430B600CE0302C07D807490B6803229343013A13430B6002E00020FFF7D2FD281CFFF7A4FD38BD300010400E4B70B500251E1C7A
:401300000D4CE41AA410A54204D0AB00F35898470135F8E700F02AF8084B00251E1C084CE41AA410A54204D0AB00F35898470135F8E770BD781300007813000078130000C0
:40134000801300000000000048656C6C6F20776F726C6400EEDBC9B9AA9B8E82766B60564D443B332C241D17100A0400F8B5C046F8BC08BC9E467047B501000059040000ED
:40138000F8B5C046F8BC08BC9E4670478D010000A0130000980000201800000060000000000000000000C05D80BB000030000000006CDC0204040400000000000000000018
:4013C00000000000000000000000000000000000000000000000000000000000000000000000000000000000000000000000000000000000000000000000000000000000ED
:4014000000000000000000000000000000000000000000000000000000000000000000000000000000000000000000000000000000000000000000000000000000000000AC
:40144000000000000000000000000000000000000000000000000000000000000000000000000000000000000000000000000000000000000000000000000000000000006C
:40148000000000000000000000000000000000000000000000000000000000000000000000000000000000000000000000000000000000000000000000000000000000002C
:0200000490303A
:02000000241BBF
:0200000490402A
:4000000000000000000000000000000000000000000000000000000000000000000000000000000000000000000000000000000000000000000000000000000000000000C0
:0200000490501A
:0C00000000021B0E11AB00011B1435C6E2
:0200000490600A
:0100000001FE
:00000001FF